{
    "_format": "hh-sol-artifact-1",
    "contractName": "RoboPunks",
    "sourceName": "contracts/RoboPunks.sol",
    "abi": [
        {
            "inputs": [],
            "stateMutability": "payable",
            "type": "constructor"
        },
        {
            "anonymous": false,
            "inputs": [
                {
                    "indexed": true,
                    "internalType": "address",
                    "name": "owner",
                    "type": "address"
                },
                {
                    "indexed": true,
                    "internalType": "address",
                    "name": "approved",
                    "type": "address"
                },
                {
                    "indexed": true,
                    "internalType": "uint256",
                    "name": "tokenId",
                    "type": "uint256"
                }
            ],
            "name": "Approval",
            "type": "event"
        },
        {
            "anonymous": false,
            "inputs": [
                {
                    "indexed": true,
                    "internalType": "address",
                    "name": "owner",
                    "type": "address"
                },
                {
                    "indexed": true,
                    "internalType": "address",
                    "name": "operator",
                    "type": "address"
                },
                {
                    "indexed": false,
                    "internalType": "bool",
                    "name": "approved",
                    "type": "bool"
                }
            ],
            "name": "ApprovalForAll",
            "type": "event"
        },
        {
            "anonymous": false,
            "inputs": [
                {
                    "indexed": true,
                    "internalType": "address",
                    "name": "previousOwner",
                    "type": "address"
                },
                {
                    "indexed": true,
                    "internalType": "address",
                    "name": "newOwner",
                    "type": "address"
                }
            ],
            "name": "OwnershipTransferred",
            "type": "event"
        },
        {
            "anonymous": false,
            "inputs": [
                {
                    "indexed": true,
                    "internalType": "address",
                    "name": "from",
                    "type": "address"
                },
                {
                    "indexed": true,
                    "internalType": "address",
                    "name": "to",
                    "type": "address"
                },
                {
                    "indexed": true,
                    "internalType": "uint256",
                    "name": "tokenId",
                    "type": "uint256"
                }
            ],
            "name": "Transfer",
            "type": "event"
        },
        {
            "inputs": [
                {
                    "internalType": "address",
                    "name": "to",
                    "type": "address"
                },
                {
                    "internalType": "uint256",
                    "name": "tokenId",
                    "type": "uint256"
                }
            ],
            "name": "approve",
            "outputs": [],
            "stateMutability": "nonpayable",
            "type": "function"
        },
        {
            "inputs": [
                {
                    "internalType": "address",
                    "name": "owner",
                    "type": "address"
                }
            ],
            "name": "balanceOf",
            "outputs": [
                {
                    "internalType": "uint256",
                    "name": "",
                    "type": "uint256"
                }
            ],
            "stateMutability": "view",
            "type": "function"
        },
        {
            "inputs": [
                {
                    "internalType": "uint256",
                    "name": "tokenId",
                    "type": "uint256"
                }
            ],
            "name": "getApproved",
            "outputs": [
                {
                    "internalType": "address",
                    "name": "",
                    "type": "address"
                }
            ],
            "stateMutability": "view",
            "type": "function"
        },
        {
            "inputs": [
                {
                    "internalType": "address",
                    "name": "owner",
                    "type": "address"
                },
                {
                    "internalType": "address",
                    "name": "operator",
                    "type": "address"
                }
            ],
            "name": "isApprovedForAll",
            "outputs": [
                {
                    "internalType": "bool",
                    "name": "",
                    "type": "bool"
                }
            ],
            "stateMutability": "view",
            "type": "function"
        },
        {
            "inputs": [],
            "name": "isPublicMintEnabled",
            "outputs": [
                {
                    "internalType": "bool",
                    "name": "",
                    "type": "bool"
                }
            ],
            "stateMutability": "view",
            "type": "function"
        },
        {
            "inputs": [],
            "name": "maxPerWallet",
            "outputs": [
                {
                    "internalType": "uint256",
                    "name": "",
                    "type": "uint256"
                }
            ],
            "stateMutability": "view",
            "type": "function"
        },
        {
            "inputs": [],
            "name": "maxSupply",
            "outputs": [
                {
                    "internalType": "uint256",
                    "name": "",
                    "type": "uint256"
                }
            ],
            "stateMutability": "view",
            "type": "function"
        },
        {
            "inputs": [
                {
                    "internalType": "uint256",
                    "name": "_quantity",
                    "type": "uint256"
                }
            ],
            "name": "mint",
            "outputs": [],
            "stateMutability": "payable",
            "type": "function"
        },
        {
            "inputs": [],
            "name": "mintPrice",
            "outputs": [
                {
                    "internalType": "uint256",
                    "name": "",
                    "type": "uint256"
                }
            ],
            "stateMutability": "view",
            "type": "function"
        },
        {
            "inputs": [],
            "name": "name",
            "outputs": [
                {
                    "internalType": "string",
                    "name": "",
                    "type": "string"
                }
            ],
            "stateMutability": "view",
            "type": "function"
        },
        {
            "inputs": [],
            "name": "owner",
            "outputs": [
                {
                    "internalType": "address",
                    "name": "",
                    "type": "address"
                }
            ],
            "stateMutability": "view",
            "type": "function"
        },
        {
            "inputs": [
                {
                    "internalType": "uint256",
                    "name": "tokenId",
                    "type": "uint256"
                }
            ],
            "name": "ownerOf",
            "outputs": [
                {
                    "internalType": "address",
                    "name": "",
                    "type": "address"
                }
            ],
            "stateMutability": "view",
            "type": "function"
        },
        {
            "inputs": [],
            "name": "renounceOwnership",
            "outputs": [],
            "stateMutability": "nonpayable",
            "type": "function"
        },
        {
            "inputs": [
                {
                    "internalType": "address",
                    "name": "from",
                    "type": "address"
                },
                {
                    "internalType": "address",
                    "name": "to",
                    "type": "address"
                },
                {
                    "internalType": "uint256",
                    "name": "tokenId",
                    "type": "uint256"
                }
            ],
            "name": "safeTransferFrom",
            "outputs": [],
            "stateMutability": "nonpayable",
            "type": "function"
        },
        {
            "inputs": [
                {
                    "internalType": "address",
                    "name": "from",
                    "type": "address"
                },
                {
                    "internalType": "address",
                    "name": "to",
                    "type": "address"
                },
                {
                    "internalType": "uint256",
                    "name": "tokenId",
                    "type": "uint256"
                },
                {
                    "internalType": "bytes",
                    "name": "data",
                    "type": "bytes"
                }
            ],
            "name": "safeTransferFrom",
            "outputs": [],
            "stateMutability": "nonpayable",
            "type": "function"
        },
        {
            "inputs": [
                {
                    "internalType": "address",
                    "name": "operator",
                    "type": "address"
                },
                {
                    "internalType": "bool",
                    "name": "approved",
                    "type": "bool"
                }
            ],
            "name": "setApprovalForAll",
            "outputs": [],
            "stateMutability": "nonpayable",
            "type": "function"
        },
        {
            "inputs": [
                {
                    "internalType": "string",
                    "name": "_baseTokenUri",
                    "type": "string"
                }
            ],
            "name": "setBaseTokenUri",
            "outputs": [],
            "stateMutability": "nonpayable",
            "type": "function"
        },
        {
            "inputs": [
                {
                    "internalType": "bool",
                    "name": "_isPublicMintEnabled",
                    "type": "bool"
                }
            ],
            "name": "setPublicMintEnabled",
            "outputs": [],
            "stateMutability": "nonpayable",
            "type": "function"
        },
        {
            "inputs": [
                {
                    "internalType": "bytes4",
                    "name": "interfaceId",
                    "type": "bytes4"
                }
            ],
            "name": "supportsInterface",
            "outputs": [
                {
                    "internalType": "bool",
                    "name": "",
                    "type": "bool"
                }
            ],
            "stateMutability": "view",
            "type": "function"
        },
        {
            "inputs": [],
            "name": "symbol",
            "outputs": [
                {
                    "internalType": "string",
                    "name": "",
                    "type": "string"
                }
            ],
            "stateMutability": "view",
            "type": "function"
        },
        {
            "inputs": [
                {
                    "internalType": "uint256",
                    "name": "tokenId",
                    "type": "uint256"
                }
            ],
            "name": "tokenURI",
            "outputs": [
                {
                    "internalType": "string",
                    "name": "",
                    "type": "string"
                }
            ],
            "stateMutability": "view",
            "type": "function"
        },
        {
            "inputs": [
                {
                    "internalType": "address",
                    "name": "from",
                    "type": "address"
                },
                {
                    "internalType": "address",
                    "name": "to",
                    "type": "address"
                },
                {
                    "internalType": "uint256",
                    "name": "tokenId",
                    "type": "uint256"
                }
            ],
            "name": "transferFrom",
            "outputs": [],
            "stateMutability": "nonpayable",
            "type": "function"
        },
        {
            "inputs": [
                {
                    "internalType": "address",
                    "name": "newOwner",
                    "type": "address"
                }
            ],
            "name": "transferOwnership",
            "outputs": [],
            "stateMutability": "nonpayable",
            "type": "function"
        },
        {
            "inputs": [
                {
                    "internalType": "address",
                    "name": "",
                    "type": "address"
                }
            ],
            "name": "walletMints",
            "outputs": [
                {
                    "internalType": "uint256",
                    "name": "",
                    "type": "uint256"
                }
            ],
            "stateMutability": "view",
            "type": "function"
        }
    ],
    "bytecode": "0x60806040526040518060400160405280600981526020017f526f626f50756e6b7300000000000000000000000000000000000000000000008152506040518060400160405280600281526020017f5250000000000000000000000000000000000000000000000000000000000000815250816000908162000081919062000469565b50806001908162000093919062000469565b505050620000b6620000aa6200012160201b60201c565b6200012960201b60201c565b66470de4df8200006008819055506103e86009819055506003600a819055506001600b60006101000a81548160ff02191690831515021790555060405180608001604052806044815260200162003a4560449139600c90816200011a919062000469565b5062000550565b600033905090565b6000600660009054906101000a900473ffffffffffffffffffffffffffffffffffffffff16905081600660006101000a81548173ffffffffffffffffffffffffffffffffffffffff021916908373ffffffffffffffffffffffffffffffffffffffff1602179055508173ffffffffffffffffffffffffffffffffffffffff168173ffffffffffffffffffffffffffffffffffffffff167f8be0079c531659141344cd1fd0a4f28419497f9722a3daafe3b4186f6b6457e060405160405180910390a35050565b600081519050919050565b7f4e487b7100000000000000000000000000000000000000000000000000000000600052604160045260246000fd5b7f4e487b7100000000000000000000000000000000000000000000000000000000600052602260045260246000fd5b600060028204905060018216806200027157607f821691505b60208210810362000287576200028662000229565b5b50919050565b60008190508160005260206000209050919050565b60006020601f8301049050919050565b600082821b905092915050565b600060088302620002f17fffffffffffffffffffffffffffffffffffffffffffffffffffffffffffffffff82620002b2565b620002fd8683620002b2565b95508019841693508086168417925050509392505050565b6000819050919050565b6000819050919050565b60006200034a620003446200033e8462000315565b6200031f565b62000315565b9050919050565b6000819050919050565b620003668362000329565b6200037e620003758262000351565b848454620002bf565b825550505050565b600090565b6200039562000386565b620003a28184846200035b565b505050565b5b81811015620003ca57620003be6000826200038b565b600181019050620003a8565b5050565b601f8211156200041957620003e3816200028d565b620003ee84620002a2565b81016020851015620003fe578190505b620004166200040d85620002a2565b830182620003a7565b50505b505050565b600082821c905092915050565b60006200043e600019846008026200041e565b1980831691505092915050565b60006200045983836200042b565b9150826002028217905092915050565b6200047482620001ef565b67ffffffffffffffff81111562000490576200048f620001fa565b5b6200049c825462000258565b620004a9828285620003ce565b600060209050601f831160018114620004e15760008415620004cc578287015190505b620004d885826200044b565b86555062000548565b601f198416620004f1866200028d565b60005b828110156200051b57848901518255600182019150602085019450602081019050620004f4565b868310156200053b578489015162000537601f8916826200042b565b8355505b6001600288020188555050505b505050505050565b6134e580620005606000396000f3fe60806040526004361061014b5760003560e01c8063818668d7116100b6578063b88d4fde1161006f578063b88d4fde1461046f578063c87b56dd14610498578063d5abeb01146104d5578063e985e9c514610500578063f0293fd31461053d578063f2fde38b1461057a5761014b565b8063818668d7146103825780638da5cb5b146103ab57806395652cfa146103d657806395d89b41146103ff578063a0712d681461042a578063a22cb465146104465761014b565b806342842e0e1161010857806342842e0e14610272578063453c23101461029b5780636352211e146102c65780636817c76c1461030357806370a082311461032e578063715018a61461036b5761014b565b80630116bc2d1461015057806301ffc9a71461017b57806306fdde03146101b8578063081812fc146101e3578063095ea7b31461022057806323b872dd14610249575b600080fd5b34801561015c57600080fd5b506101656105a3565b6040516101729190611f2a565b60405180910390f35b34801561018757600080fd5b506101a2600480360381019061019d9190611fb1565b6105b6565b6040516101af9190611f2a565b60405180910390f35b3480156101c457600080fd5b506101cd610698565b6040516101da919061206e565b60405180910390f35b3480156101ef57600080fd5b5061020a600480360381019061020591906120c6565b61072a565b6040516102179190612134565b60405180910390f35b34801561022c57600080fd5b506102476004803603810190610242919061217b565b610770565b005b34801561025557600080fd5b50610270600480360381019061026b91906121bb565b610887565b005b34801561027e57600080fd5b50610299600480360381019061029491906121bb565b6108e7565b005b3480156102a757600080fd5b506102b0610907565b6040516102bd919061221d565b60405180910390f35b3480156102d257600080fd5b506102ed60048036038101906102e891906120c6565b61090d565b6040516102fa9190612134565b60405180910390f35b34801561030f57600080fd5b50610318610993565b604051610325919061221d565b60405180910390f35b34801561033a57600080fd5b5061035560048036038101906103509190612238565b610999565b604051610362919061221d565b60405180910390f35b34801561037757600080fd5b50610380610a50565b005b34801561038e57600080fd5b506103a960048036038101906103a49190612291565b610a64565b005b3480156103b757600080fd5b506103c0610a89565b6040516103cd9190612134565b60405180910390f35b3480156103e257600080fd5b506103fd60048036038101906103f89190612323565b610ab3565b005b34801561040b57600080fd5b50610414610ad1565b604051610421919061206e565b60405180910390f35b610444600480360381019061043f91906120c6565b610b63565b005b34801561045257600080fd5b5061046d60048036038101906104689190612370565b610cfd565b005b34801561047b57600080fd5b50610496600480360381019061049191906124e0565b610d13565b005b3480156104a457600080fd5b506104bf60048036038101906104ba91906120c6565b610d75565b6040516104cc919061206e565b60405180910390f35b3480156104e157600080fd5b506104ea610e62565b6040516104f7919061221d565b60405180910390f35b34801561050c57600080fd5b5061052760048036038101906105229190612563565b610e68565b6040516105349190611f2a565b60405180910390f35b34801561054957600080fd5b50610564600480360381019061055f9190612238565b610efc565b604051610571919061221d565b60405180910390f35b34801561058657600080fd5b506105a1600480360381019061059c9190612238565b610f14565b005b600b60009054906101000a900460ff1681565b60007f80ac58cd000000000000000000000000000000000000000000000000000000007bffffffffffffffffffffffffffffffffffffffffffffffffffffffff1916827bffffffffffffffffffffffffffffffffffffffffffffffffffffffff1916148061068157507f5b5e139f000000000000000000000000000000000000000000000000000000007bffffffffffffffffffffffffffffffffffffffffffffffffffffffff1916827bffffffffffffffffffffffffffffffffffffffffffffffffffffffff1916145b80610691575061069082610f97565b5b9050919050565b6060600080546106a7906125d2565b80601f01602080910402602001604051908101604052809291908181526020018280546106d3906125d2565b80156107205780601f106106f557610100808354040283529160200191610720565b820191906000526020600020905b81548152906001019060200180831161070357829003601f168201915b5050505050905090565b600061073582611001565b6004600083815260200190815260200160002060009054906101000a900473ffffffffffffffffffffffffffffffffffffffff169050919050565b600061077b8261090d565b90508073ffffffffffffffffffffffffffffffffffffffff168373ffffffffffffffffffffffffffffffffffffffff16036107eb576040517f08c379a00000000000000000000000000000000000000000000000000000000081526004016107e290612675565b60405180910390fd5b8073ffffffffffffffffffffffffffffffffffffffff1661080a61104c565b73ffffffffffffffffffffffffffffffffffffffff16148061083957506108388161083361104c565b610e68565b5b610878576040517f08c379a000000000000000000000000000000000000000000000000000000000815260040161086f90612707565b60405180910390fd5b6108828383611054565b505050565b61089861089261104c565b8261110d565b6108d7576040517f08c379a00000000000000000000000000000000000000000000000000000000081526004016108ce90612799565b60405180910390fd5b6108e28383836111a2565b505050565b61090283838360405180602001604052806000815250610d13565b505050565b600a5481565b6000806109198361149b565b9050600073ffffffffffffffffffffffffffffffffffffffff168173ffffffffffffffffffffffffffffffffffffffff160361098a576040517f08c379a000000000000000000000000000000000000000000000000000000000815260040161098190612805565b60405180910390fd5b80915050919050565b60085481565b60008073ffffffffffffffffffffffffffffffffffffffff168273ffffffffffffffffffffffffffffffffffffffff1603610a09576040517f08c379a0000000000000000000000000000000000000000000000000000000008152600401610a0090612897565b60405180910390fd5b600360008373ffffffffffffffffffffffffffffffffffffffff1673ffffffffffffffffffffffffffffffffffffffff168152602001908152602001600020549050919050565b610a586114d8565b610a626000611556565b565b610a6c6114d8565b80600b60006101000a81548160ff02191690831515021790555050565b6000600660009054906101000a900473ffffffffffffffffffffffffffffffffffffffff16905090565b610abb6114d8565b8181600c9182610acc929190612a6e565b505050565b606060018054610ae0906125d2565b80601f0160208091040260200160405190810160405280929190818152602001828054610b0c906125d2565b8015610b595780601f10610b2e57610100808354040283529160200191610b59565b820191906000526020600020905b815481529060010190602001808311610b3c57829003601f168201915b5050505050905090565b600b60009054906101000a900460ff16610bb2576040517f08c379a0000000000000000000000000000000000000000000000000000000008152600401610ba990612b8a565b60405180910390fd5b600a5481600e60003373ffffffffffffffffffffffffffffffffffffffff1673ffffffffffffffffffffffffffffffffffffffff16815260200190815260200160002054610c009190612bd9565b1115610c41576040517f08c379a0000000000000000000000000000000000000000000000000000000008152600401610c3890612c59565b60405180910390fd5b60095481610c4f600761161c565b610c599190612bd9565b1115610c9a576040517f08c379a0000000000000000000000000000000000000000000000000000000008152600401610c9190612cc5565b60405180910390fd5b60005b81811015610cf95760006001610cb3600761161c565b610cbd9190612bd9565b9050610cc9338261162a565b610cdb81610cd683611648565b61167c565b610ce560076116a1565b508080610cf190612ce5565b915050610c9d565b5050565b610d0f610d0861104c565b83836116b7565b5050565b610d24610d1e61104c565b8361110d565b610d63576040517f08c379a0000000000000000000000000000000000000000000000000000000008152600401610d5a90612799565b60405180910390fd5b610d6f84848484611823565b50505050565b6060610d808261187f565b610dbf576040517f08c379a0000000000000000000000000000000000000000000000000000000008152600401610db690612d79565b60405180910390fd5b600d60008381526020019081526020016000208054610ddd906125d2565b80601f0160208091040260200160405190810160405280929190818152602001828054610e09906125d2565b8015610e565780601f10610e2b57610100808354040283529160200191610e56565b820191906000526020600020905b815481529060010190602001808311610e3957829003601f168201915b50505050509050919050565b60095481565b6000600560008473ffffffffffffffffffffffffffffffffffffffff1673ffffffffffffffffffffffffffffffffffffffff16815260200190815260200160002060008373ffffffffffffffffffffffffffffffffffffffff1673ffffffffffffffffffffffffffffffffffffffff16815260200190815260200160002060009054906101000a900460ff16905092915050565b600e6020528060005260406000206000915090505481565b610f1c6114d8565b600073ffffffffffffffffffffffffffffffffffffffff168173ffffffffffffffffffffffffffffffffffffffff1603610f8b576040517f08c379a0000000000000000000000000000000000000000000000000000000008152600401610f8290612e0b565b60405180910390fd5b610f9481611556565b50565b60007f01ffc9a7000000000000000000000000000000000000000000000000000000007bffffffffffffffffffffffffffffffffffffffffffffffffffffffff1916827bffffffffffffffffffffffffffffffffffffffffffffffffffffffff1916149050919050565b61100a8161187f565b611049576040517f08c379a000000000000000000000000000000000000000000000000000000000815260040161104090612805565b60405180910390fd5b50565b600033905090565b816004600083815260200190815260200160002060006101000a81548173ffffffffffffffffffffffffffffffffffffffff021916908373ffffffffffffffffffffffffffffffffffffffff160217905550808273ffffffffffffffffffffffffffffffffffffffff166110c78361090d565b73ffffffffffffffffffffffffffffffffffffffff167f8c5be1e5ebec7d5bd14f71427d1e84f3dd0314c0f7b2291e5b200ac8c7c3b92560405160405180910390a45050565b6000806111198361090d565b90508073ffffffffffffffffffffffffffffffffffffffff168473ffffffffffffffffffffffffffffffffffffffff16148061115b575061115a8185610e68565b5b8061119957508373ffffffffffffffffffffffffffffffffffffffff166111818461072a565b73ffffffffffffffffffffffffffffffffffffffff16145b91505092915050565b8273ffffffffffffffffffffffffffffffffffffffff166111c28261090d565b73ffffffffffffffffffffffffffffffffffffffff1614611218576040517f08c379a000000000000000000000000000000000000000000000000000000000815260040161120f90612e9d565b60405180910390fd5b600073ffffffffffffffffffffffffffffffffffffffff168273ffffffffffffffffffffffffffffffffffffffff1603611287576040517f08c379a000000000000000000000000000000000000000000000000000000000815260040161127e90612f2f565b60405180910390fd5b61129483838360016118c0565b8273ffffffffffffffffffffffffffffffffffffffff166112b48261090d565b73ffffffffffffffffffffffffffffffffffffffff161461130a576040517f08c379a000000000000000000000000000000000000000000000000000000000815260040161130190612e9d565b60405180910390fd5b6004600082815260200190815260200160002060006101000a81549073ffffffffffffffffffffffffffffffffffffffff02191690556001600360008573ffffffffffffffffffffffffffffffffffffffff1673ffffffffffffffffffffffffffffffffffffffff168152602001908152602001600020600082825403925050819055506001600360008473ffffffffffffffffffffffffffffffffffffffff1673ffffffffffffffffffffffffffffffffffffffff16815260200190815260200160002060008282540192505081905550816002600083815260200190815260200160002060006101000a81548173ffffffffffffffffffffffffffffffffffffffff021916908373ffffffffffffffffffffffffffffffffffffffff160217905550808273ffffffffffffffffffffffffffffffffffffffff168473ffffffffffffffffffffffffffffffffffffffff167fddf252ad1be2c89b69c2b068fc378daa952ba7f163c4a11628f55a4df523b3ef60405160405180910390a461149683838360016118c6565b505050565b60006002600083815260200190815260200160002060009054906101000a900473ffffffffffffffffffffffffffffffffffffffff169050919050565b6114e061104c565b73ffffffffffffffffffffffffffffffffffffffff166114fe610a89565b73ffffffffffffffffffffffffffffffffffffffff1614611554576040517f08c379a000000000000000000000000000000000000000000000000000000000815260040161154b90612f9b565b60405180910390fd5b565b6000600660009054906101000a900473ffffffffffffffffffffffffffffffffffffffff16905081600660006101000a81548173ffffffffffffffffffffffffffffffffffffffff021916908373ffffffffffffffffffffffffffffffffffffffff1602179055508173ffffffffffffffffffffffffffffffffffffffff168173ffffffffffffffffffffffffffffffffffffffff167f8be0079c531659141344cd1fd0a4f28419497f9722a3daafe3b4186f6b6457e060405160405180910390a35050565b600081600001549050919050565b6116448282604051806020016040528060008152506118cc565b5050565b6060600c61165583611927565b6040516020016116669291906130c6565b6040516020818303038152906040529050919050565b80600d6000848152602001908152602001600020908161169c91906130f5565b505050565b6001816000016000828254019250508190555050565b8173ffffffffffffffffffffffffffffffffffffffff168373ffffffffffffffffffffffffffffffffffffffff1603611725576040517f08c379a000000000000000000000000000000000000000000000000000000000815260040161171c90613213565b60405180910390fd5b80600560008573ffffffffffffffffffffffffffffffffffffffff1673ffffffffffffffffffffffffffffffffffffffff16815260200190815260200160002060008473ffffffffffffffffffffffffffffffffffffffff1673ffffffffffffffffffffffffffffffffffffffff16815260200190815260200160002060006101000a81548160ff0219169083151502179055508173ffffffffffffffffffffffffffffffffffffffff168373ffffffffffffffffffffffffffffffffffffffff167f17307eab39ab6107e8899845ad3d59bd9653f200f220920489ca2b5937696c31836040516118169190611f2a565b60405180910390a3505050565b61182e8484846111a2565b61183a848484846119f5565b611879576040517f08c379a0000000000000000000000000000000000000000000000000000000008152600401611870906132a5565b60405180910390fd5b50505050565b60008073ffffffffffffffffffffffffffffffffffffffff166118a18361149b565b73ffffffffffffffffffffffffffffffffffffffff1614159050919050565b50505050565b50505050565b6118d68383611b7c565b6118e360008484846119f5565b611922576040517f08c379a0000000000000000000000000000000000000000000000000000000008152600401611919906132a5565b60405180910390fd5b505050565b60606000600161193684611d99565b01905060008167ffffffffffffffff811115611955576119546123b5565b5b6040519080825280601f01601f1916602001820160405280156119875781602001600182028036833780820191505090505b509050600082602001820190505b6001156119ea578080600190039150507f3031323334353637383961626364656600000000000000000000000000000000600a86061a8153600a85816119de576119dd6132c5565b5b04945060008503611995575b819350505050919050565b6000611a168473ffffffffffffffffffffffffffffffffffffffff16611eec565b15611b6f578373ffffffffffffffffffffffffffffffffffffffff1663150b7a02611a3f61104c565b8786866040518563ffffffff1660e01b8152600401611a619493929190613349565b6020604051808303816000875af1925050508015611a9d57506040513d601f19601f82011682018060405250810190611a9a91906133aa565b60015b611b1f573d8060008114611acd576040519150601f19603f3d011682016040523d82523d6000602084013e611ad2565b606091505b506000815103611b17576040517f08c379a0000000000000000000000000000000000000000000000000000000008152600401611b0e906132a5565b60405180910390fd5b805181602001fd5b63150b7a0260e01b7bffffffffffffffffffffffffffffffffffffffffffffffffffffffff1916817bffffffffffffffffffffffffffffffffffffffffffffffffffffffff191614915050611b74565b600190505b949350505050565b600073ffffffffffffffffffffffffffffffffffffffff168273ffffffffffffffffffffffffffffffffffffffff1603611beb576040517f08c379a0000000000000000000000000000000000000000000000000000000008152600401611be290613423565b60405180910390fd5b611bf48161187f565b15611c34576040517f08c379a0000000000000000000000000000000000000000000000000000000008152600401611c2b9061348f565b60405180910390fd5b611c426000838360016118c0565b611c4b8161187f565b15611c8b576040517f08c379a0000000000000000000000000000000000000000000000000000000008152600401611c829061348f565b60405180910390fd5b6001600360008473ffffffffffffffffffffffffffffffffffffffff1673ffffffffffffffffffffffffffffffffffffffff16815260200190815260200160002060008282540192505081905550816002600083815260200190815260200160002060006101000a81548173ffffffffffffffffffffffffffffffffffffffff021916908373ffffffffffffffffffffffffffffffffffffffff160217905550808273ffffffffffffffffffffffffffffffffffffffff16600073ffffffffffffffffffffffffffffffffffffffff167fddf252ad1be2c89b69c2b068fc378daa952ba7f163c4a11628f55a4df523b3ef60405160405180910390a4611d956000838360016118c6565b5050565b600080600090507a184f03e93ff9f4daa797ed6e38ed64bf6a1f0100000000000000008310611df7577a184f03e93ff9f4daa797ed6e38ed64bf6a1f0100000000000000008381611ded57611dec6132c5565b5b0492506040810190505b6d04ee2d6d415b85acef81000000008310611e34576d04ee2d6d415b85acef81000000008381611e2a57611e296132c5565b5b0492506020810190505b662386f26fc100008310611e6357662386f26fc100008381611e5957611e586132c5565b5b0492506010810190505b6305f5e1008310611e8c576305f5e1008381611e8257611e816132c5565b5b0492506008810190505b6127108310611eb1576127108381611ea757611ea66132c5565b5b0492506004810190505b60648310611ed45760648381611eca57611ec96132c5565b5b0492506002810190505b600a8310611ee3576001810190505b80915050919050565b6000808273ffffffffffffffffffffffffffffffffffffffff163b119050919050565b60008115159050919050565b611f2481611f0f565b82525050565b6000602082019050611f3f6000830184611f1b565b92915050565b6000604051905090565b600080fd5b600080fd5b60007fffffffff0000000000000000000000000000000000000000000000000000000082169050919050565b611f8e81611f59565b8114611f9957600080fd5b50565b600081359050611fab81611f85565b92915050565b600060208284031215611fc757611fc6611f4f565b5b6000611fd584828501611f9c565b91505092915050565b600081519050919050565b600082825260208201905092915050565b60005b83811015612018578082015181840152602081019050611ffd565b60008484015250505050565b6000601f19601f8301169050919050565b600061204082611fde565b61204a8185611fe9565b935061205a818560208601611ffa565b61206381612024565b840191505092915050565b600060208201905081810360008301526120888184612035565b905092915050565b6000819050919050565b6120a381612090565b81146120ae57600080fd5b50565b6000813590506120c08161209a565b92915050565b6000602082840312156120dc576120db611f4f565b5b60006120ea848285016120b1565b91505092915050565b600073ffffffffffffffffffffffffffffffffffffffff82169050919050565b600061211e826120f3565b9050919050565b61212e81612113565b82525050565b60006020820190506121496000830184612125565b92915050565b61215881612113565b811461216357600080fd5b50565b6000813590506121758161214f565b92915050565b6000806040838503121561219257612191611f4f565b5b60006121a085828601612166565b92505060206121b1858286016120b1565b9150509250929050565b6000806000606084860312156121d4576121d3611f4f565b5b60006121e286828701612166565b93505060206121f386828701612166565b9250506040612204868287016120b1565b9150509250925092565b61221781612090565b82525050565b6000602082019050612232600083018461220e565b92915050565b60006020828403121561224e5761224d611f4f565b5b600061225c84828501612166565b91505092915050565b61226e81611f0f565b811461227957600080fd5b50565b60008135905061228b81612265565b92915050565b6000602082840312156122a7576122a6611f4f565b5b60006122b58482850161227c565b91505092915050565b600080fd5b600080fd5b600080fd5b60008083601f8401126122e3576122e26122be565b5b8235905067ffffffffffffffff811115612300576122ff6122c3565b5b60208301915083600182028301111561231c5761231b6122c8565b5b9250929050565b6000806020838503121561233a57612339611f4f565b5b600083013567ffffffffffffffff81111561235857612357611f54565b5b612364858286016122cd565b92509250509250929050565b6000806040838503121561238757612386611f4f565b5b600061239585828601612166565b92505060206123a68582860161227c565b9150509250929050565b600080fd5b7f4e487b7100000000000000000000000000000000000000000000000000000000600052604160045260246000fd5b6123ed82612024565b810181811067ffffffffffffffff8211171561240c5761240b6123b5565b5b80604052505050565b600061241f611f45565b905061242b82826123e4565b919050565b600067ffffffffffffffff82111561244b5761244a6123b5565b5b61245482612024565b9050602081019050919050565b82818337600083830152505050565b600061248361247e84612430565b612415565b90508281526020810184848401111561249f5761249e6123b0565b5b6124aa848285612461565b509392505050565b600082601f8301126124c7576124c66122be565b5b81356124d7848260208601612470565b91505092915050565b600080600080608085870312156124fa576124f9611f4f565b5b600061250887828801612166565b945050602061251987828801612166565b935050604061252a878288016120b1565b925050606085013567ffffffffffffffff81111561254b5761254a611f54565b5b612557878288016124b2565b91505092959194509250565b6000806040838503121561257a57612579611f4f565b5b600061258885828601612166565b925050602061259985828601612166565b9150509250929050565b7f4e487b7100000000000000000000000000000000000000000000000000000000600052602260045260246000fd5b600060028204905060018216806125ea57607f821691505b6020821081036125fd576125fc6125a3565b5b50919050565b7f4552433732313a20617070726f76616c20746f2063757272656e74206f776e6560008201527f7200000000000000000000000000000000000000000000000000000000000000602082015250565b600061265f602183611fe9565b915061266a82612603565b604082019050919050565b6000602082019050818103600083015261268e81612652565b9050919050565b7f4552433732313a20617070726f76652063616c6c6572206973206e6f7420746f60008201527f6b656e206f776e6572206f7220617070726f76656420666f7220616c6c000000602082015250565b60006126f1603d83611fe9565b91506126fc82612695565b604082019050919050565b60006020820190508181036000830152612720816126e4565b9050919050565b7f4552433732313a2063616c6c6572206973206e6f7420746f6b656e206f776e6560008201527f72206f7220617070726f76656400000000000000000000000000000000000000602082015250565b6000612783602d83611fe9565b915061278e82612727565b604082019050919050565b600060208201905081810360008301526127b281612776565b9050919050565b7f4552433732313a20696e76616c696420746f6b656e2049440000000000000000600082015250565b60006127ef601883611fe9565b91506127fa826127b9565b602082019050919050565b6000602082019050818103600083015261281e816127e2565b9050919050565b7f4552433732313a2061646472657373207a65726f206973206e6f74206120766160008201527f6c6964206f776e65720000000000000000000000000000000000000000000000602082015250565b6000612881602983611fe9565b915061288c82612825565b604082019050919050565b600060208201905081810360008301526128b081612874565b9050919050565b600082905092915050565b60008190508160005260206000209050919050565b60006020601f8301049050919050565b600082821b905092915050565b6000600883026129247fffffffffffffffffffffffffffffffffffffffffffffffffffffffffffffffff826128e7565b61292e86836128e7565b95508019841693508086168417925050509392505050565b6000819050919050565b600061296b61296661296184612090565b612946565b612090565b9050919050565b6000819050919050565b61298583612950565b61299961299182612972565b8484546128f4565b825550505050565b600090565b6129ae6129a1565b6129b981848461297c565b505050565b5b818110156129dd576129d26000826129a6565b6001810190506129bf565b5050565b601f821115612a22576129f3816128c2565b6129fc846128d7565b81016020851015612a0b578190505b612a1f612a17856128d7565b8301826129be565b50505b505050565b600082821c905092915050565b6000612a4560001984600802612a27565b1980831691505092915050565b6000612a5e8383612a34565b9150826002028217905092915050565b612a7883836128b7565b67ffffffffffffffff811115612a9157612a906123b5565b5b612a9b82546125d2565b612aa68282856129e1565b6000601f831160018114612ad55760008415612ac3578287013590505b612acd8582612a52565b865550612b35565b601f198416612ae3866128c2565b60005b82811015612b0b57848901358255600182019150602085019450602081019050612ae6565b86831015612b285784890135612b24601f891682612a34565b8355505b6001600288020188555050505b50505050505050565b7f4d696e74696e67206e6f7420656e61626c656400000000000000000000000000600082015250565b6000612b74601383611fe9565b9150612b7f82612b3e565b602082019050919050565b60006020820190508181036000830152612ba381612b67565b9050919050565b7f4e487b7100000000000000000000000000000000000000000000000000000000600052601160045260246000fd5b6000612be482612090565b9150612bef83612090565b9250828201905080821115612c0757612c06612baa565b5b92915050565b7f4d696e7473207065722077616c6c657420657863656564656400000000000000600082015250565b6000612c43601983611fe9565b9150612c4e82612c0d565b602082019050919050565b60006020820190508181036000830152612c7281612c36565b9050919050565b7f4d617820737570706c7920657863656564656400000000000000000000000000600082015250565b6000612caf601383611fe9565b9150612cba82612c79565b602082019050919050565b60006020820190508181036000830152612cde81612ca2565b9050919050565b6000612cf082612090565b91507fffffffffffffffffffffffffffffffffffffffffffffffffffffffffffffffff8203612d2257612d21612baa565b5b600182019050919050565b7f546f6b656e20646f6573206e6f74206578697374000000000000000000000000600082015250565b6000612d63601483611fe9565b9150612d6e82612d2d565b602082019050919050565b60006020820190508181036000830152612d9281612d56565b9050919050565b7f4f776e61626c653a206e6577206f776e657220697320746865207a65726f206160008201527f6464726573730000000000000000000000000000000000000000000000000000602082015250565b6000612df5602683611fe9565b9150612e0082612d99565b604082019050919050565b60006020820190508181036000830152612e2481612de8565b9050919050565b7f4552433732313a207472616e736665722066726f6d20696e636f72726563742060008201527f6f776e6572000000000000000000000000000000000000000000000000000000602082015250565b6000612e87602583611fe9565b9150612e9282612e2b565b604082019050919050565b60006020820190508181036000830152612eb681612e7a565b9050919050565b7f4552433732313a207472616e7366657220746f20746865207a65726f2061646460008201527f7265737300000000000000000000000000000000000000000000000000000000602082015250565b6000612f19602483611fe9565b9150612f2482612ebd565b604082019050919050565b60006020820190508181036000830152612f4881612f0c565b9050919050565b7f4f776e61626c653a2063616c6c6572206973206e6f7420746865206f776e6572600082015250565b6000612f85602083611fe9565b9150612f9082612f4f565b602082019050919050565b60006020820190508181036000830152612fb481612f78565b9050919050565b600081905092915050565b60008154612fd3816125d2565b612fdd8186612fbb565b94506001821660008114612ff8576001811461300d57613040565b60ff1983168652811515820286019350613040565b613016856128c2565b60005b8381101561303857815481890152600182019150602081019050613019565b838801955050505b50505092915050565b600061305482611fde565b61305e8185612fbb565b935061306e818560208601611ffa565b80840191505092915050565b7f2e6a736f6e000000000000000000000000000000000000000000000000000000600082015250565b60006130b0600583612fbb565b91506130bb8261307a565b600582019050919050565b60006130d28285612fc6565b91506130de8284613049565b91506130e9826130a3565b91508190509392505050565b6130fe82611fde565b67ffffffffffffffff811115613117576131166123b5565b5b61312182546125d2565b61312c8282856129e1565b600060209050601f83116001811461315f576000841561314d578287015190505b6131578582612a52565b8655506131bf565b601f19841661316d866128c2565b60005b8281101561319557848901518255600182019150602085019450602081019050613170565b868310156131b257848901516131ae601f891682612a34565b8355505b6001600288020188555050505b505050505050565b7f4552433732313a20617070726f766520746f2063616c6c657200000000000000600082015250565b60006131fd601983611fe9565b9150613208826131c7565b602082019050919050565b6000602082019050818103600083015261322c816131f0565b9050919050565b7f4552433732313a207472616e7366657220746f206e6f6e20455243373231526560008201527f63656976657220696d706c656d656e7465720000000000000000000000000000602082015250565b600061328f603283611fe9565b915061329a82613233565b604082019050919050565b600060208201905081810360008301526132be81613282565b9050919050565b7f4e487b7100000000000000000000000000000000000000000000000000000000600052601260045260246000fd5b600081519050919050565b600082825260208201905092915050565b600061331b826132f4565b61332581856132ff565b9350613335818560208601611ffa565b61333e81612024565b840191505092915050565b600060808201905061335e6000830187612125565b61336b6020830186612125565b613378604083018561220e565b818103606083015261338a8184613310565b905095945050505050565b6000815190506133a481611f85565b92915050565b6000602082840312156133c0576133bf611f4f565b5b60006133ce84828501613395565b91505092915050565b7f4552433732313a206d696e7420746f20746865207a65726f2061646472657373600082015250565b600061340d602083611fe9565b9150613418826133d7565b602082019050919050565b6000602082019050818103600083015261343c81613400565b9050919050565b7f4552433732313a20746f6b656e20616c7265616479206d696e74656400000000600082015250565b6000613479601c83611fe9565b915061348482613443565b602082019050919050565b600060208201905081810360008301526134a88161346c565b905091905056fea2646970667358221220a379ca4cfd50b9ff152554e85248f8bf87bf01b1e39d8cf167dbfd30dc937f3b64736f6c6343000812003368747470733a2f2f697066732e696f2f697066732f516d575270793374765146567a394d696a72476d6b4772446a7a3864446361617679794c4137745632543546446b2f",
    "linkReferences": {},
    "deployedLinkReferences": {}
}